:020000040800F2
:1000000000000220D902000841410008E302000874
:100010004341000845410008474100080000000036
:10002000000000000000000000000000494100083E
:100030004B410008000000004D4100084F410008FE
:10004000050400080504000805040008050400086C
:10005000050400080504000805040008050400085C
:10006000050400080504000805040008050400084C
:10007000453E000805040008574100080504000833
:10008000050400080504000805040008050400082C
:10009000050400080504000805040008050400081C
:1000A000050400080504000805040008050400080C
:1000B00005040008050400080504000805040008FC
:1000C00005040008050400080504000805040008EC
:1000D00005040008553E0008050400080504000852
:1000E00005040008050400080504000805040008CC
:1000F00005040008050400080504000805040008BC
:1001000005040008050400080504000805040008AB
:10011000050400080504000805040008050400089B
:10012000050400080504000805040008050400088B
:10013000050400080000000000000000050400089D
:10014000050400080504000805040008050400086B
:10015000050400080504000805040008050400085B
:10016000050400080504000805040008050400084B
:10017000050400080504000805040008000000004C
:10018000000000000504000800000000000000005E
:10019000050400080000000000000000050400083D
:1001A000000000000000000000000000050400083E
:1001B00005040008050400080504000805040008FB
:1001C0000504000800B583B002F024FF304B314A2B
:1001D0001360314A1360314B314A03E052F8041B7B
:1001E00043F8041B2F498B42F8D32A4B1A682E4B35
:1001F0009A4200D0FEE7284B1A682C4B9A42F9D15C
:10020000234B2B4A13602B4A13602B4B02E0002236
:1002100043F8042B294A9342F9D3254B1B6813B9A1
:10022000244B1B6803B1FEE702F000FF694601A8FA
:1002300002F00EFD224C234BE41AA410002504E02A
:10024000204B53F8253098470135AC42F8DC1E4C62
:100250001E4BE41AA410002504E01C4B53F8253073
:1002600098470135AC42F8DC0099019803F034FC62
:100270000546174C174BE41AA41004E0013C154B3B
:1002800053F824309847002CF8DC284602F07CFC18
:10029000BABADECA00000020D4000020000000200E
:1002A000046E0008D8000020785634123254769834
:1002B000D800002020530020D80000202453002024
:1002C000300400083004000830040008300400083E
:1002D000300400083004000808B5FFF773FF00BEC3
:1002E000FEE71EF0040F0CBFEFF30880EFF3098068
:1002F0007146414A10472DE9F04182B004468846D4
:10030000124B5E6B9F6B9D6A1B6B13F0020F03D049
:100310000E4BDB6A002B0CDB0D4802F02DFECDF8F6
:1003200000803B4632462946204602F083FE00BE4E
:10033000FEE74BF6AB6102F0F7FE0028ECD0034B72
:100340004FF00042DA6202B0BDE8F08100ED00E05B
:10035000A46B000800BEFEE71EF0040F0CBFEFF315
:100360000880EFF309807146244A10472DE9F041D7
:1003700082B004468846084B5E6B9F6B9D6A0748B7
:1003800002F0FAFDCDF800803B4632462946204671
:1003900002F050FE00BEFEE700ED00E0B46B000886
:1003A0001EF0040F0CBFEFF30880EFF309807146D5
:1003B000134A10472DE9F04182B004468846084BA5
:1003C0005E6B9F6B9D6A074802F0D6FDCDF80080FA
:1003D0003B4632462946204602F02CFE00BEFEE790
:1003E00000ED00E0C06B000800BEFEE700BEFEE7C7
:1003F00000BEFEE770470000F70200086D0300082A
:08040000B503000800BEFEE791
:10040800046E000800000020D8000020046E0008D8
:100418000000001000000010D80000202453002025
:080428000000001000000010AC
:1004300010B50446074B1868074BA3FB0030800932
:1004400000F0D6FB002221464FF0FF3000F074FB95
:10045000002010BD60000020D34D621008B50B4B8A
:100460001A6842F400721A601A6842F480621A60D4
:100470001A6842F480721A60032000F03FFB0020EB
:10048000FFF7D6FF03F0BCFD002008BD003C024092
:10049000024A136801331360704700BFC80200208E
:1004A000014B1868704700BFC802002010B5044611
:1004B000514B5A6822F440325A605A6841680A43E4
:1004C0005A600268536823F480735360026853686B
:1004D000016943EA012353600268536823F04073C3
:1004E00053600268536881680B43536002689368E5
:1004F00023F40063936002689368C1680B439360C0
:10050000826A3E4B9A425FD00268936823F0706320
:10051000936002689368816A0B43936002689368F2
:1005200023F04053936002689368C16A0B43936061
:100530002268936823F00203936022689368A1699C
:1005400043EA41039360236A002B4ED0636A013B68
:10055000072B44D82268536843F400635360226831
:10056000536823F460435360636A013B4FF4604275
:1005700092FAA2F2B2FA82F2934021684A681343D7
:100580004B602268D36A23F47003D3622168CB6A7C
:10059000E269013A43EA0253CB622268936823F48A
:1005A0000073936022689368216B43EA4123936050
:1005B0002268936823F4806393602268936861697A
:1005C00043EA8123936010BD0268936823F070634F
:1005D00093600268936823F040539360A8E740F269
:1005E0000A61074803F082FAB4E72268536823F4EB
:1005F00000635360C5E700BF002301400100000F06
:10060000F0680008002800F0EB8010B5044603688D
:10061000744A93420CD002F58072934208D002F5DE
:100620008072934204D040F20D116F4803F05EFADD
:10063000636843B1B3F5803F05D0B3F5003F02D006
:10064000B3F5403F6FD1A36843B1B3F1807F05D0CC
:10065000B3F1007F02D0B3F1407F6AD12369012B4F
:100660006DD8A369012B70D8A36A7BB3B3F1807FE7
:100670002CD0B3F1007F29D0B3F1407F26D0B3F165
:10068000806F23D0B3F1A06F20D0B3F1C06F1DD025
:10069000B3F1E06F1AD0B3F1006F17D0B3F1106F60
:1006A00014D0B3F1206F11D0B3F1306F0ED0B3F18D
:1006B000406F0BD0B3F1506F08D0B3F1606F05D02D
:1006C000B3F1706F02D0494A934244D1E36813B149
:1006D000B3F5006F45D1E369013B0F2B47D8236B7E
:1006E000012B4AD86369022B4DD8236A012B50D8BD
:1006F000A26A3E4B9A420AD0E36A43B1B3F1805FEB
:1007000005D0B3F1005F02D0B3F1405F47D1236C55
:10071000002B4AD0236C13F0100F4DD00120002382
:1007200084F83C3010BD4FF487712F4803F0DEF998
:1007300089E740F20F112C4803F0D8F98EE74FF407
:100740008871294803F0D2F98BE740F2111126484D
:1007500003F0CCF988E74FF48971234803F0C6F918
:10076000B4E740F21311204803F0C0F9B3E74FF4A7
:100770008A711D4803F0BAF9B1E740F215111A4821
:1007800003F0B4F9AEE74FF48B71174803F0AEF9FC
:10079000ABE740F21711144803F0A8F9A8E740F2BC
:1007A0001B11114803F0A2F9B1E7636484F83C30EF
:1007B000204603F041FCADE7236C23F4885323F07B
:1007C000020343F0020323642046FFF76FFE00207C
:1007D0006064236C23F0030343F0010323649EE76A
:1007E0000120704700200140F06800080100000F60
:1007F00010B582B00446002301938369012B29D8E8
:10080000E36A43B1B3F1805F05D0B3F1005F02D07A
:10081000B3F1405F24D194F83C30012B6FD0012319
:1008200084F83C3023689A6812F0010F1ED19A6850
:1008300042F001029A60364B1B68364AA2FB032342
:100840009B0C03EB43030193019B7BB1019B013B99
:100850000193F9E74FF4DD712F4803F047F9CFE733
:1008600040F2BB112C4803F041F9D4E722689368A9
:1008700013F0010F45D0236C23F4E06323F0010350
:1008800043F480732364536813F4806F05D0236CA2
:1008900023F4405343F480532364236C13F4805FA8
:1008A0001AD0636C23F006036364002384F83C30A1
:1008B00023686FF022021A60184B5B6813F01F0F59
:1008C0000DD123689A6812F0405F1DD19A6842F0FA
:1008D00080429A60002015E000236364E5E7236806
:1008E0000F4A934201D000200CE09A6812F0405F5A
:1008F0000CD19A6842F080429A60002002E0022007
:1009000000E0002002B010BD0020FBE70020F9E766
:100910006000002083DE1B43F068000800230140D4
:100920000020014030B583B005460C4600230193FA
:100930000B68122B02D96B4A93424ED16368013B7C
:100940000F2B50D8A368072B53D895F83C30012BB8
:1009500000F0C580012385F83C302368092B4ED96F
:100960002868C2689BB203EB43031E3B072101FAD0
:1009700003F322EA0303C3602868C268A1682388DE
:1009800003EB43031E3B01FA03F31343C3606368A5
:10099000062B4AD82868426B03EB8303053B1F21D3
:1009A00001FA03F322EA030343632868426B636896
:1009B00003EB8303053B218801FA03F313434363ED
:1009C0002A68494B9A4260D02A68474B9A4265D0C0
:1009D000002085F83C0003B030BD40F2045143488C
:1009E00003F084F8AAE740F20551404803F07EF88E
:1009F000A8E740F206513D4803F078F8A5E72868DB
:100A000002699BB203EB4303072101FA03F322EAD5
:100A10000303036128680269A168238803EB430389
:100A200001FA03F313430361B1E70C2B16D82868CE
:100A3000026B03EB8303233B1F2101FA03F322EA3A
:100A4000030303632868026B636803EB8303233BA0
:100A5000218801FA03F313430363B1E72868C26AEC
:100A600003EB8303413B1F2101FA03F322EA030353
:100A7000C3622868C26A636803EB8303413B218831
:100A800001FA03F31343C3629AE72368122B9BD145
:100A9000174A536843F48003536095E72368114A6B
:100AA000934201D0112B93D1114A536843F40003B0
:100AB000536022680B4B9A428AD10E4B1B680E4A38
:100AC000A2FB03239B0C03EB83035A000192019BBF
:100AD000002B3FF47DAF019B013B0193F7E7022020
:100AE00079E700BF1200001000200140F068000804
:100AF000002301406000002083DE1B4310B5044644
:100B0000C31E042B0FD80A4AD36823F4E0631B04E6
:100B10001B0C240204F4E064234343F0BF6343F45A
:100B20000033D36010BDA421024802F0DFFFEAE7E2
:100B300000ED00E02069000870B505460C46164639
:100B40000F2A0FD80F2C12D81B4BDB68C3F30223DC
:100B5000C3F10702042A28BF0422191D06290BD954
:100B6000033B0AE0BC21154802F0C0FFEAE7BD21C3
:100B7000124802F0BBFFE7E700234FF0FF3101FA14
:100B800002F224EA02049C4001FA03F326EA030677
:100B90003443002D08DB2401E4B205F1604505F57E
:100BA000614585F8004370BD05F00F052401E4B2EE
:100BB000034B5C55F7E700BF00ED00E0206900083B
:100BC00014ED00E010B5041E08DB04F01F026409F8
:100BD00001239340044A42F8243010BDD021034839
:100BE00002F084FFF1E700BF00E100E020690008A7
:100BF0000138B0F1807F0AD2064B5860064AF021D6
:100C000082F823100020986007221A6070470120A4
:100C1000704700BF10E000E000ED00E090F83530D4
:100C2000DBB2022B03D080234365012070470523EC
:100C300080F835300268136823F001031360002048
:100C400070470000F0B583B0044600230193724B57
:100C50001D68724BA3FB0535AD0A876D3E68C26DFA
:100C600008239340334210D003681A6812F0040F2F
:100C70000BD01A6822F004021A60C26D0823934058
:100C8000BB60436D43F001034365E26D644B9340E9
:100C9000334209D02268526912F0800F04D0BB6041
:100CA000636D43F002036365E26D5E4B9340334234
:100CB00009D02268126812F0020F04D0BB60636D85
:100CC00043F004036365E26D10239340334224D064
:100CD0002268126812F0080F1FD0BB6023681A68E0
:100CE00012F4802F0DD01B6813F4002F04D1236C55
:100CF0009BB12046984710E0A36C73B120469847FB
:100D00000BE01A6812F4807F03D11A6822F00802FF
:100D10001A60236C0BB120469847E26D2023934064
:100D2000334255D02268126812F0100F50D0BB60C9
:100D300094F83530DBB2052B0ED023681A6812F414
:100D4000802F33D01B6813F4002F2AD1636C002B43
:100D50003ED0204698473BE02268136823F01603F4
:100D600013602268536923F080035361236CA3B19D
:100D70002268136823F008031360E26D3F23934059
:100D8000BB60002384F83430012384F83530236DB0
:100D9000002B3FD0204698473CE0A36C002BE7D1C6
:100DA000EBE7E36BA3B12046984711E01A6812F411
:100DB000807F09D11A6822F010021A60002384F89B
:100DC0003430012384F83530E36B0BB1204698476B
:100DD000636DFBB1636D13F0010F17D0052384F829
:100DE00035302268136823F001031360019B01333F
:100DF0000193AB4204D823681B6813F0010FF5D1AF
:100E0000002384F83430012384F83530E36C0BB1CF
:100E10002046984703B0F0BD60000020B5814E1B0E
:100E200001008000040080002DE9F04782B0804678
:100E30000E46B04B98421FD003F5806398421BD0FA
:100E400003F58063984217D003F58063984213D06E
:100E500003F5806398420FD003F5806398420BD06E
:100E600003F58063984207D003F58063984203D06E
:100E7000C521A14802F03AFE338833B37368012BD1
:100E80001ED9112B1CD0022B1AD0122B18D09B4A22
:100E9000934215D002F58012934211D002F58012D0
:100EA00093420DD0A2F5F812934209D002F58012B8
:100EB000934205D002F58012934201D0032B09D151
:100EC000B368022B0BD800244FE0C6218A4802F0F9
:100ED0000DFED3E7C721884802F008FEF0E7C821DD
:100EE000854802F003FEEEE7D921834802F0FEFDBB
:100EF00067E0EC21804802F0F9FD92E0062300E073
:100F000000238B40034302327D4941F822307D4B60
:100F10001A68FB4303EA0201706810F4803F01D0B5
:100F200047EA0201774A1160526803EA02017068D9
:100F300010F4003F01D047EA0201724A5160926802
:100F400003EA0201706810F4801F01D047EA020131
:100F50006C4A9160D2681340716811F4001F01D08F
:100F600047EA0203674AD36001340F2C00F2BF80C6
:100F70000125A54037682F40BD42F5D17368022B8B
:100F800001D0122B2DD13369DBB1092B19D0012BE4
:100F900017D0022B15D0032B13D0042B11D0052B07
:100FA0000FD0062B0DD0072B0BD0082B09D00A2B06
:100FB00007D00B2B05D00C2B03D00D2B01D00F2B02
:100FC00092D1E208083258F8220004F00703990091
:100FD0000F238B4020EA030033698B40034348F81A
:100FE0002230D8F800204FEA440A4FF0030909FAEA
:100FF0000AF96FEA090909EA0202736803F00303B8
:1010000003FA0AF31343C8F8003073685A1E012A22
:1010100003D9112B01D0122B18D1F368032B3FF603
:1010200068AFD8F8082009EA0202F36803FA0AF365
:101030001343C8F80830D8F8042022EA0502736880
:10104000C3F30015A5401543C8F80450D8F80C3078
:1010500009EA0309B36803FA0AF343EA0903C8F883
:101060000C30736813F0805F3FF47EAF0023019370
:10107000254B5A6C42F480425A645B6C03F4804303
:101080000193019BA208911C1D4B53F8210004F011
:10109000030399000F238B4020EA0300154B98456A
:1010A0003FF42EAF03F58063984516D003F58063B7
:1010B000984514D003F58063984512D003F58063FA
:1010C000984510D003F5806398450ED003F58063F2
:1010D00098453FF413AF082313E7012311E70223D8
:1010E0000FE703230DE704230BE7052309E702B00D
:1010F000BDE8F087000002405469000800001110AC
:1011000000380140003C01400038024038B5054637
:101110000C4621B12B691C4207D0012038BD4FF489
:10112000C871034802F0E2FCF4E70020F6E700BFD4
:101130005469000870B5064615460C4621B1012DCC
:1011400008D86DB1B46170BD40F2B111064802F02B
:10115000CDFCF4E74FF4D971034802F0C7FCF0E787
:101160002404B461EFE700BF546900087047000031
:10117000002800F0EB8010B504460368744A9342DF
:101180000CD002F58062934208D002F5806293424F
:1011900004D040F265116F4802F0A8FC6368013B7F
:1011A0006D4A934267D8A36813B1B3F5804F68D1F5
:1011B000E36823F47F7323F00303002B67D12369D3
:1011C000B3F5804F02D0B3F5404F66D16369012B70
:1011D00069D8A36933F0FE036BD1E3690BB1402BEF
:1011E0006DD1236A0BB1802B6FD194F83D30002B69
:1011F00071D0242384F83D302268136823F0010362
:10120000136000F08BFC554BA3FB00239B0C226862
:1012100053606168524A914263D801332268136275
:1012200063684F4A934266D85B00B0FBF3F040F628
:10123000FC73184200D104202368D861E369216A55
:1012400022680B4313602369E16822680B439360B3
:101250006369A16922680B43D3602268136843F075
:101260000103136000202064202384F83D302063B4
:1012700084F83E0010BD4FF4B371364802F036FCDE
:1012800091E740F26711334802F030FC90E74FF4E9
:10129000B471304802F02AFC91E740F269112D4800
:1012A00002F024FC92E74FF4B5712A4802F01EFCCC
:1012B0008FE740F26B11274802F018FC8DE74FF4DE
:1012C000B671244802F012FC8BE740F26D11214800
:1012D00002F00CFC89E784F83C302046FFF746FF1B
:1012E00087E74FF4967202FB03F31E4AA2FB032327
:1012F0009B09013392E7A16889B903EB4302B0FB74
:10130000F2F2C2F30B02B2FA82F25209E2B991B9D7
:1013100003EB4303B0FBF3F040F400408CE703EB36
:10132000830202EB8202B0FBF2F2C2F30B02B2FACA
:1013300082F25209EAE703EB830303EB8303B0FB7A
:10134000F3F040F4404077E7012075E70120704753
:1013500000540040846900087F1A060083DE1B43A6
:10136000A0860100D34D621000283AD038B504465B
:1013700002681D4B9A4203D0AF211C4802F0B6FB15
:101380006368062B1ED8A368B3F5805F1FD223685D
:101390004CF6CC421A60236845F255521A60236815
:1013A00062685A602368A2689A60FFF779F8054678
:1013B0002368DA6882B1FFF773F8401B3028F7D949
:1013C00003200DE0B021094802F090FBDBE7B121DA
:1013D000064802F08BFBDAE74AF6AA221A600020E0
:1013E00038BD0120704700BF00300040B4690008DC
:1013F00003684AF6AA221A600020704730B583B00D
:10140000044603680F2B29D8236813F0010F3DD041
:101410006368012B01D9052B25D1A24B9B6803F0F2
:101420000C03042B29D09F4B9B6803F00C03082B63
:101430001ED022799C4B1A706368002B50D0FFF7A6
:101440002FF80546974B1B6813F4003F1ED1FFF79A
:1014500027F8401B6428F5D90320E3E1F5219348E0
:1014600002F044FBD0E7FA21904802F03FFBD4E7BA
:101470008C4B5B6813F4800FDBD08A4B1B6813F432
:10148000003F03D06368002B00F0C781236813F08E
:10149000020F5CD0E368012B31D823691F2B34D8AD
:1014A000804B9B6813F00C0F3AD07E4B9B6803F087
:1014B0000C03082B2FD0E368002B73D07C4B012248
:1014C0001A60FEF7EDFF0546764B1B6813F0020F1E
:1014D00059D1FEF7E5FF401B0228F5D90320A1E111
:1014E000FEF7DEFF05466F4B1B6813F4003FCDD0BF
:1014F000FEF7D6FF401B6428F5D9032092E14FF494
:1015000096716A4802F0F2FAC7E740F22D11674877
:1015100002F0ECFAC4E7634B5B6813F4800FCAD1A6
:10152000604B1B6813F0020F03D0E368012B40F0FF
:1015300076815C48036823F0F8032169F82292FA67
:10154000A2F2B2FA82F201FA02F2134303602368B4
:1015500013F0080F50D06369012B35D86369002B55
:1015600038D0544B01221A60FEF79AFF05464D4BC6
:101570005B6F13F0020F3FD1FEF792FF401B022872
:10158000F5D903204EE14748036823F0F8032169A9
:10159000F82292FAA2F2B2FA82F201FA02F21343AC
:1015A0000360D4E7424B00221A60FEF779FF05463C
:1015B0003C4B1B6813F0020FC9D0FEF771FF401BB4
:1015C0000228F5D903202DE140F26D11374802F0D1
:1015D0008DFAC3E7374B00221A60FEF761FF05461C
:1015E000304B5B6F13F0020F06D0FEF759FF401B24
:1015F0000228F5D9032015E1236813F0040F5FD00A
:10160000A368012B01D9052B1FD100230193254B82
:101610001A6C42F080521A641B6C03F080530193E1
:10162000019B254A136843F480731360FEF738FF6B
:101630000546214B1B6813F4807F0CD1FEF730FF69
:10164000401B0228F5D90320ECE040F2971117481F
:1016500002F04CFAD9E7227A184B1A70A36883B1CA
:10166000FEF71EFF05460F4B1B6F13F0020F27D12D
:10167000FEF716FF401B41F288339842F3D903204E
:10168000D0E0FEF70DFF0546064B1B6F13F0020F6F
:1016900016D0FEF705FF401B41F288339842F3D97C
:1016A0000320BFE00038024002380240F46900081D
:1016B00000004742800E47420070004070380240F0
:1016C000A369022B39D8A369002B00F0AA80574ADE
:1016D000926802F00C02082A00F0A680022B40F06B
:1016E0008880E36913B1B3F5800F2CD1236A3F2BB7
:1016F0002FD8636A323BB3F5BF7F30D8A36A022B81
:1017000005D0042B03D0062B01D0082B2DD1E36A82
:10171000043B0B2B2FD8464B00221A60FEF7C0FE6D
:101720000546424B1B6813F0007F2AD0FEF7B8FE37
:10173000401B0228F5D9032074E04FF4E6713D48C0
:1017400002F0D4F9BFE740F2D5113A4802F0CEF9E1
:10175000CCE74FF4EB71374802F0C8F9C9E740F223
:10176000D711344802F0C2F9C8E74FF4EC713148A0
:1017700002F0BCF9CBE740F2D9112E4802F0B6F9DD
:10178000C9E7E369226A1343616A47F6C07292FAB5
:10179000A2F2B2FA82F201FA02F21343A26A5208EA
:1017A000013A4FF4403191FAA1F1B1FA81F18A4046
:1017B0001343E16A4FF0706292FAA2F2B2FA82F237
:1017C00001FA02F21343194A5360194B01221A60BD
:1017D000FEF766FE0446154B1B6813F0007F06D12A
:1017E000FEF75EFE001B0228F5D903201AE0002058
:1017F00018E00F4B00221A60FEF752FE04460B4B16
:101800001B6813F0007F06D0FEF74AFE001B02287B
:10181000F5D9032006E0002004E0012002E00120C9
:1018200000E0002003B030BD0120FBE7003802409B
:1018300060004742F46900081D4B9B6803F00C03ED
:10184000042B30D0082B30D1194B586800F03F00E2
:101850005B6813F4800F16D0154B5B6847F6C073B6
:1018600093FAA3F30020124B5B6803F440334FF468
:10187000403292FAA2F2B2FA82F2D34001335B0014
:10188000B0FBF3F070470B4AB2FBF0F2084B58681C
:1018900047F6C073184093FAA3F3B3FA83F3D84022
:1018A00000FB02F0DFE7002070470248704700BFEE
:1018B000003802400024F40070B504460D46036869
:1018C000013B0E2B5ED80F2D62D88C4B1B6803F0AA
:1018D0000F03AB4208D2EBB2884A1370136803F0CF
:1018E0000F03AB4240F00481236813F0020F18D0BD
:1018F000A3687BB1802B0DD0902B0BD0A02B09D0EF
:10190000B02B07D0C02B05D0D02B03D0E02B01D0BB
:10191000F02B43D17A4A936823F0F003A1680B437C
:101920009360236813F0010F7FD06368032B3BD8CB
:101930006368012B3ED09A1E012A42D9704A126870
:1019400012F0020F00F0D6806D498A6822F003027F
:1019500013438B60FEF7A4FD06466368012B37D066
:10196000022B44D0032B51D0654B9B6813F00C0F16
:101970005BD0FEF795FD801B41F288339842F3D986
:101980000320A8E040F237215E4802F0AFF89AE762
:101990004FF40E715B4802F0A9F896E740F24F2130
:1019A000584802F0A3F8B5E740F25621554802F036
:1019B0009DF8BDE7524A126812F4003FC4D10120DD
:1019C00089E04F4A126812F0007FBDD1012082E009
:1019D0004B4B9B6803F00C03042B26D0FEF760FDF5
:1019E000801B41F288339842F2D9032073E0444BC4
:1019F0009B6803F00C03082B17D0FEF751FD801BEA
:101A000041F288339842F2D9032064E03C4B9B6852
:101A100003F00C030C2B08D0FEF742FD801B41F2B3
:101A200088339842F2D9032055E0344B1B6803F009
:101A30000F03AB4207D9EAB2304B1A701B6803F0B0
:101A40000F03AB4258D1236813F0040F14D0E3689E
:101A50005BB1B3F5805F08D0B3F5A05F05D0B3F5F7
:101A6000C05F02D0B3F5E05F36D1254A936823F416
:101A7000E053E1680B439360236813F0080F15D01F
:101A800023695BB1B3F5805F08D0B3F5A05F05D0E3
:101A9000B3F5C05F02D0B3F5E05F23D1184A936875
:101AA00023F46043216943EAC1039360FFF7C4FE56
:101AB000134B9B6803F0F003F02292FAA2F2B2FA01
:101AC00082F2D340104AD35CD840104B18600020FB
:101AD000FEF7AEFC002070BD4FF42D71094802F0F6
:101AE00005F8C2E740F2BB21064801F0FFFFD5E749
:101AF0000120F0E70120EEE70120ECE7003C024086
:101B000000380240F4690008E46900086000002021
:101B1000014B1868704700BF6000002008B5FFF750
:101B2000F7FF074B9B6803F4E0534FF4E05292FA3F
:101B3000A2F2B2FA82F2D340024AD35CD84008BD86
:101B400000380240E469000808B5FFF7E1FF074BE1
:101B50009B6803F460434FF4604292FAA2F2B2FA37
:101B600082F2D340024AD35CD84008BD003802401C
:101B7000E469000810B4036A046A24F001040462F2
:101B8000846924F0F00444EA021223F00A030B43B0
:101B90008261036210BC704710B4036A23F0100323
:101BA00003628469036A24F4704444EA023223F035
:101BB000A00343EA01138261036210BC704783688B
:101BC00023F0700341F0070119438160704710B49E
:101BD000846824F47F4442EA03230B432343836055
:101BE00010BC704738B590F83830012B00F0D8821F
:101BF0000D460446012380F83830022380F839303E
:101C00000B68B3F5805F11D0B3F5005F0ED06BB1F8
:101C1000102B0BD0202B09D0302B07D0402B05D018
:101C2000502B03D0602B01D0702B52D122689368C7
:101C300023F47F4323F0770393602B68402B00F05D
:101C400007824CD9702B00F03A8100F2A780502B0C
:101C500000F09C81602B40F02B812368B74A9342AF
:101C60001FD0B3F1804F1CD0A2F57C42934218D014
:101C700002F58062934214D002F58062934210D044
:101C800002F5784293420CD002F57052934208D08C
:101C9000A2F59432934204D040F6BA71A84801F0FC
:101CA00025FF6B68B3F5004F05D023B1022B02D09E
:101CB0000A2B40F0C181EB680F2B00F2C381EA6868
:101CC00069682068FFF768FF60212068FFF777FFE9
:101CD000EEE040F66D719A4801F008FFA6E7102B80
:101CE00000F00C822ED9202B00F03182302B40F0F6
:101CF000DF802368914A93421FD0B3F1804F1CD0FC
:101D0000A2F57C42934218D002F58062934214D02F
:101D100002F58062934210D002F5784293420CD0D3
:101D200002F57052934208D0A2F59432934204D047
:101D300040F6E871824801F0D9FE30212068FFF7B3
:101D40003EFFB5E0002B40F0B38023687B4A93420E
:101D50001FD0B3F1804F1CD0A2F57C42934218D023
:101D600002F58062934214D002F58062934210D053
:101D700002F5784293420CD002F57052934208D09B
:101D8000A2F59432934204D040F6D6716C4801F02B
:101D9000ADFE00212068FFF712FF89E0B3F5805FF8
:101DA00045D0B3F5005F40F083802368634A9342D7
:101DB00017D0B3F1804F14D0A2F57C42934210D0DB
:101DC00002F5806293420CD002F58062934208D003
:101DD00002F57842934204D040F69A71584801F0D7
:101DE00085FE6B68B3F5004F05D023B1022B02D0FE
:101DF0000A2B40F0B980AB684BB1B3F5805F06D0D9
:101E0000B3F5005F03D0B3F5405F40F0B380EB68FB
:101E10000F2B00F2B580EB686A68A9682068FFF7AD
:101E2000D6FE2268936843F48043936040E02368C1
:101E3000424A934237D0B3F1804F34D0A2F57C426E
:101E4000934230D002F5806293422CD002F580623A
:101E5000934228D002F58062934224D002F580623A
:101E6000934220D002F5704293421CD002F570528A
:101E7000934218D002F58062934214D002F580623A
:101E8000934210D0A2F5983293420CD002F58062B2
:101E9000934208D002F58062934204D040F67971F3
:101EA000274801F023FE2268936823F0070393601C
:101EB000012384F83930002084F8380038BD2368C5
:101EC0001E4A934217D0B3F1804F14D0A2F57C4242
:101ED000934210D002F5806293420CD002F58062EA
:101EE000934208D002F57842934204D040F68271C2
:101EF000134801F0FBFD6B68B3F5004F04D01BB134
:101F0000022B01D00A2B1DD1AB6843B1B3F5805F22
:101F100005D0B3F5005F02D0B3F5405F18D1EB6890
:101F20000F2B1BD8EB686A68A9682068FFF74FFE83
:101F30002268936843F077039360B9E7000001409B
:101F4000246A000840F68471964801F0CFFDDBE773
:101F500040F68571934801F0C9FDE0E740F68671CF
:101F6000904801F0C3FDDDE740F69C718D4801F01B
:101F7000BDFD40E740F69D718A4801F0B7FD46E798
:101F800040F69E71874801F0B1FD44E72368864A18
:101F900093422FD0B3F1804F2CD0A2F57C429342D4
:101FA00028D002F58062934224D002F580629342E9
:101FB00020D002F5784293421CD002F57052934231
:101FC00018D002F58062934214D002F580629342E9
:101FD00010D0A2F5983293420CD002F58062934261
:101FE00008D002F58062934204D040F6AC716D488F
:101FF00001F07CFD6B68B3F5004F04D01BB1022BE0
:1020000001D00A2B0CD1EB680F2B0FD8EA68696856
:102010002068FFF7AFFD50212068FFF7D0FD47E7AC
:1020200040F6AF715F4801F061FDECE74FF47B6172
:102030005C4801F05BFDE9E740F6BD71594801F0ED
:1020400055FD38E640F6BE71564801F04FFD36E6C4
:102050002368554A93422FD0B3F1804F2CD0A2F57C
:102060007C42934228D002F58062934224D002F54C
:102070008062934220D002F5784293421CD002F550
:102080007052934218D002F58062934214D002F548
:102090008062934210D0A2F5983293420CD002F5A0
:1020A0008062934208D002F58062934204D040F6E9
:1020B000C8713C4801F01AFD6B68B3F5004F04D0BD
:1020C0001BB1022B01D00A2B0CD1EB680F2B0FD8C0
:1020D000EA6869682068FFF74DFD40212068FFF736
:1020E0006EFDE5E640F6CB712E4801F0FFFCECE713
:1020F00040F6CC712B4801F0F9FCE9E723682A4A45
:1021000093421FD0B3F1804F1CD0A2F57C42934282
:1021100018D002F58062934214D002F58062934297
:1021200010D002F5784293420CD002F570529342DF
:1021300008D0A2F59432934204D040F6DC711948DD
:1021400001F0D4FC10212068FFF739FDB0E62368C8
:10215000154A93421FD0B3F1804F1CD0A2F57C42A8
:10216000934218D002F58062934214D002F5806247
:10217000934210D002F5784293420CD002F570528F
:10218000934208D0A2F59432934204D040F6E27113
:10219000044801F0ABFC20212068FFF710FD87E622
:1021A00002208BE6246A00080000014070B5044656
:1021B0000D461646274B98422FD0B0F1804F2CD0B9
:1021C000A3F57C43984228D003F58063984224D03D
:1021D00003F58063984220D003F5784398421CD0E1
:1021E00003F57053984218D003F58063984214D0D9
:1021F00003F58063984210D0A3F5983398420CD031
:1022000003F58063984208D003F58063984204D0B8
:1022100041F27E21104801F069FC3DB1042D05D04A
:10222000082D03D00C2D01D0182D0CD1012303FA59
:1022300005F2236A23EA02032362236A06FA05F5FC
:102240001D43256270BD41F27F21034801F04EFC21
:10225000ECE700BF00000140246A000838B50446DE
:102260000D460368304A934212D0B3F1804F0FD02D
:10227000A2F57C4293420BD002F58062934207D0D4
:1022800002F58062934203D002F57842934206D170
:10229000E5B1042D1AD0082D18D00C2D16D0234AE4
:1022A00093422BD0224A93422DD0224A93422DD0E2
:1022B000214A93422DD0214A93422FD0204A934263
:1022C0002FD040F254411F4801F010FC0122294652
:1022D0002068FFF76BFF2368134A934203D002F58F
:1022E0008062934203D15A6C42F400425A642268DD
:1022F000136843F001031360002038BD002DE5D0C2
:10230000042DCFD1E2E7002DE0D0CEE7002DDDD0C7
:10231000CEE7002DDAD0042DCDD1D7E7002DD5D0D2
:10232000CCE7002DD2D0CCE70000014000400140B6
:10233000004401400048014000180040001C0040DB
:1023400000200040246A00080268D36823F49073D8
:10235000D3600268536923F001035361202380F89E
:102360003A30704790F83930DBB2212B01D002208F
:1023700070478368B3F5805F16D0036A5A1C026207
:102380001A7803685A60C38C013B9BB2C3844BB973
:102390000268D36823F08003D3600268D36843F0F7
:1023A0004003D36000207047036A1B880268C3F3B0
:1023B0000803536003691BB9036A02330362E2E74F
:1023C000036A01330362DEE72DE9F84304464268FD
:1023D000B44B9A4200F29C80E3681BB1B3F5005FF6
:1023E00040F09C80236933B1B3F5806F03D0B3F51F
:1023F000C06F40F0998063694FF6F372134200D1C9
:1024000023B940F25271A84801F070FB21680A69B3
:1024100022F44052E36813430B612168CA6822F436
:10242000164222F00C02A36820690343606903434B
:10243000E06903431343CB6021684A6922F4407288
:10244000A36913434B61E369B3F5004F72D023686E
:10245000964A934200F02E8102F58062934200F08A
:102460002981FFF75BFB00EB800000EB80006568D3
:10247000AD00B0FBF5F58E4FA7FB05356D092E01BC
:10248000FFF74CFB00EB800000EB80006568AD00BF
:10249000B0FBF5F9FFF742FB00EB800000EB80009A
:1024A0006568AD00B0FBF5F5A7FB05356D094FF08C
:1024B000640808FB15952D013235A7FB05356D091C
:1024C00005F0F0053544FFF729FB00EB800000EB39
:1024D00080006668B600B0FBF6F6FFF71FFB00EB66
:1024E000800000EB800063689B00B0FBF3F0A7FB6B
:1024F0000030400908FB10684FEA081808F132085C
:10250000A7FB0837C7F3431723682F449F6027E1D1
:1025100040F24F71644801F0E9FA5DE74FF4EA6177
:10252000614801F0E3FA5DE740F251715E4801F065
:10253000DDFA60E723685D4A93425BD002F5806272
:10254000934257D0FFF7EAFA00EB800000EB8000DF
:1025500065686D00B0FBF5F5554FA7FB05356D09B6
:102560002E01FFF7DBFA00EB800000EB80006568CE
:102570006D00B0FBF5F9FFF7D1FA00EB800000EB3E
:10258000800065686D00B0FBF5F5A7FB05356D09AA
:102590004FF0640808FB1595ED003235A7FB0535B3
:1025A0006D096D0005F4F8753544FFF7B7FA00EBD7
:1025B000800000EB800066687600B0FBF6F6FFF75F
:1025C000ADFA00EB800000EB800063685B00B0FBBD
:1025D000F3F3A7FB03235B0908FB13684FEAC80862
:1025E00008F13208A7FB0837C7F3421723682F44C6
:1025F0009F60B5E0FFF7A8FA00EB800000EB8000D9
:1026000065686D00B0FBF5F5294FA7FB05356D0931
:102610002E01FFF799FA00EB800000EB800065685F
:102620006D00B0FBF5F9FFF78FFA00EB800000EBCF
:10263000800065686D00B0FBF5F5A7FB05356D09F9
:102640004FF0640808FB1595ED003235A7FB053502
:102650006D096D0005F4F8753544FFF775FA00EB68
:10266000800000EB800066687600B0FBF6F6FFF7AE
:102670006BFA00EB800000EB800063685B00B0FB4E
:10268000F3F3A7FB03235B0908FB13684FEAC808B1
:1026900008F13208A7FB0837C7F3421723682F4415
:1026A0009F605DE0A037A000546A00080010014060
:1026B0001F85EB51FFF748FA00EB800000EB80002C
:1026C0006568AD00B0FBF5F5264FA7FB05356D0934
:1026D0002E01FFF739FA00EB800000EB80006568FF
:1026E000AD00B0FBF5F9FFF72FFA00EB800000EB2F
:1026F00080006568AD00B0FBF5F5A7FB05356D09F9
:102700004FF0640808FB15952D013235A7FB053500
:102710006D0905F0F0053544FFF716FA00EB80006F
:1027200000EB80006668B600B0FBF6F6FFF70CFA27
:1027300000EB800000EB800063689B00B0FBF3F0CF
:10274000A7FB0030400908FB10684FEA081808F1A1
:102750003208A7FB0837C7F3431723682F449F604D
:10276000BDE8F8831F85EB51002800F0898010B583
:1027700004468369002B53D00368424A93420FD02A
:10278000A2F54C4293420BD002F58062934207D0EF
:1027900002F54C42934203D0FE213B4801F0A6F9DA
:1027A000A36943B1B3F5807F05D0B3F5007F02D0B4
:1027B000B3F5407F2FD1A36813B1B3F5805F4DD13E
:1027C000E36913B1B3F5004F4ED194F83930002BC3
:1027D00050D0242384F839302268D36823F400537E
:1027E000D3602046FFF7F0FD2268136923F490437D
:1027F00013612268536923F02A0353612268D36866
:1028000043F40053D3600020E063202384F8393080
:1028100084F83A3010BDFF211B4801F067F9CAE780
:102820000368184A9342C6D0A2F54C429342C2D0E4
:1028300002F580629342BED002F580629342BAD024
:1028400002F580629342B6D002F544429342B2D080
:1028500040F203110C4801F049F9ACE740F20511D0
:10286000094801F043F9ABE74FF48371064801F0E2
:102870003DF9AAE784F83830204601F011FCA8E7BA
:102880000120704700100140546A000890F83A3067
:10289000DBB2202B20D109B312B390F83830012BD2
:1028A00020D081628285C2850023C363222280F802
:1028B0003A2080F838300168CA6842F48072CA60F1
:1028C00001684A6942F001024A610168CA6842F03F
:1028D0002002CA60184670470220704701207047E6
:1028E0000120704702207047704708B50168CB6827
:1028F00023F04003CB60202380F83930FFF7F4FF4A
:10290000002008BD08B590F83A30DBB2222B40D148
:102910008368B3F5805F0ED0036903BB03685A6810
:10292000836A591C81621A70C38D013B9BB2C385B7
:10293000F3B1002008BD826A036943B903685B688C
:10294000C3F308031380836A02338362ECE70368EE
:102950005B68DBB21380836A01338362E4E7036858
:102960005B68826A511C816203F07F031370DBE7AE
:102970000268D36823F49073D3600268536923F02C
:1029800001035361202380F83A3001F023FA00203C
:10299000D0E70220CEE7704710B5044602681368FE
:1029A000D168506913F00F0205D113F0200F02D047
:1029B00011F0200F11D11AB140F20112104210D1C2
:1029C00013F0800F02D011F0800F6FD113F0400F81
:1029D00002D011F0400F6DD110BD2046FFF792FFDD
:1029E000FAE713F0010F06D011F4807F03D0E26BF9
:1029F00042F00102E26313F0040F06D010F0010F61
:102A000003D0E26B42F00202E26313F0020F06D041
:102A100010F0010F03D0E26B42F00402E26313F006
:102A2000080F06D010F0010F03D0E26B42F008024D
:102A3000E263E26B002ACFD013F0200F02D011F036
:102A4000200F21D123685B6903F04003E26B12F091
:102A5000080F00D123B32046FFF776FC23685A699C
:102A600012F0400F18D05A6922F040025A61636B8D
:102A700073B1124A1A65606BFEF7D0F80028ABD02C
:102A8000606B036D9847A7E72046FFF73BFFD9E748
:102A90002046FFF780FF9FE72046FFF77CFF9BE77C
:102AA0002046FFF778FF0023E36395E72046FFF712
:102AB00059FC91E72046FFF718FF8DE7C12A00086F
:102AC00008B5806B0023C385C384FFF764FF08BD8E
:102AD00008B503460C4A12685AB10B4A1068033312
:102AE00023F003030344094A934206D8064A1360BD
:102AF00008BD054A06491160EFE702F069FD0C23A5
:102B000003604FF0FF30F3E7DC00002000FC012001
:102B10002453002030B51324002520462946ABBE9F
:102B20000446204630BD38B5044602F051FD054646
:102B3000FFF7F0FF2860204638BDB0F1FF3F00D01E
:102B4000704708B5FFF7EFFF08BD000010B5044659
:102B50000B4B186808B1836B5BB1132C0CD8094B75
:102B600053F83430B3F1FF3F08D0064800EBC400FF
:102B700010BD02F08BFDF0E70020F9E70020F7E739
:102B8000700000206401002000B530B9044D182405
:102B900020462946ABBE0446FEE7024DF7E700BFDC
:102BA00026000200230002002DE9F04184B0234FEB
:102BB00001970326039600230293012401AD2046CA
:102BC0002946ABBE80461E4BC3F800800197039692
:102BD0000423029320462946ABBE8046194BC3F816
:102BE0000080019703960823029320462946ABBE36
:102BF0000446154B1C60B4F1FF3F01D000230AE0EE
:102C0000104B1A68104B1A60F8E7104A4FF0FF316A
:102C100042F833100133132BF7DD0C4B084A1268CE
:102C20001A6000225A60074909689960DA6006490B
:102C3000096819615A6104B0BDE8F081846A00082E
:102C40005C01002060010020580100206401002088
:102C5000F0B583B007460E46294B00934F230193EE
:102C600015256C4628462146ABBE0546B5BBAC468D
:102C7000234B002283F84F20009A2C4628462946F1
:102C800007E001321C461F4B43F82120013101208F
:102C9000013292F90030FBB160B91B4D5D57002D38
:102CA000F6DB092BF4D0082916DC222BE9D0272BE0
:102CB000E9D1E6E734B19C42EAD1002313706446BF
:102CC0006046E5E7104D5D57002D01DB092BDFD194
:102CD000002313702046DBE739B900E00021084BE0
:102CE00000221A70074A13600131064B002243F894
:102CF000212039603360FFF757FF03B0F0BD00BFFC
:102D0000E000002030010020696C000830B585B07B
:102D1000019002910392062401AD20462946ABBEE4
:102D200004462046FFF709FF05B030BD70B50E46DA
:102D30001546FFF70BFF68B104462A463146006886
:102D4000FFF7E4FFB0F1FF3F03D0281A63680344A4
:102D5000636070BD02F03CFC092303604FF0FF305C
:102D6000F7E7F0B583B00C461546FFF7EFFEC0B1AC
:102D70000646022D1CD8012D21D0022D33D03368F8
:102D8000009301940A256F4628463946ABBE054696
:102D90002846FFF7D2FE002835DB7460204603B0DA
:102DA000F0BD02F015FC092303604FF0FF30F6E799
:102DB00002F00EFC162303604FF0FF30EFE743688C
:102DC000E418DCD502F004FC162303607368002BC2
:102DD00001DD002C02DC4FF0FF30E0E702F0F8FBF1
:102DE0008B230360F7E7036800930C256F462846A2
:102DF0003946ABBE05462846FFF79FFEB0F1FF3FC0
:102E0000CDD00444BBE74FF0FF30C8E708B5FFF76B
:102E1000A8FF08BD30B585B001900291039205244A
:102E200001AD20462946ABBE04462046FFF785FE8D
:102E300005B030BD70B50E461446FFF787FE70B181
:102E40000546224631460068FFF7E4FF021E11DB0B
:102E5000A01A6B6803446B60944207D070BD02F007
:102E6000B7FB092303604FF0FF30F7E70020FFF7BF
:102E70005AFEF3E74FF0FF30F0E730B583B0019032
:102E8000022401AD20462946ABBE04462046FFF78A
:102E900054FE03B030BD000038B50446FFF756FEBF
:102EA00090B10546013C012C04D80D4B9A681B6972
:102EB0009A4210D02868FFF7E0FF034610B94FF0A0
:102EC000FF322A60184638BD02F082FB09230360F6
:102ED0004FF0FF33F6E74FF0FF3303600023F1E7D5
:102EE0006401002070B50C46FFF730FEA8B106461D
:102EF000636843F4005363604FF4806363640C259C
:102F000028463146ABBE05462846FFF716FEB0F10F
:102F1000FF3F01D02061002070BD02F059FB092362
:102F200003604FF0FF30F7E738B505460C465822EE
:102F30000021204602F049FC21462846FFF7D2FF37
:102F400038BD38B5FFF702FE80B10546092420469A
:102F50002946ABBE04462046012C06D002F038FBC1
:102F60000446FFF7D7FD2060002038BD02F030FB9B
:102F7000092303600020F8E70FB400B583B004AB69
:102F800053F8042B01938021074802F023FD002809
:102F900004DC03B05DF804EB04B07047014602485E
:102FA00000F034F8F5E700BF040200202DE9F043FB
:102FB00085B004460F46435633BB042528462146B8
:102FC000ABBE0446384605B0BDE8F08304AA1344FE
:102FD000002203F8102C4FF00408E9464046494609
:102FE000ABBE8046761B002EECD03546102E28BF97
:102FF00010250023AB42E9D214F9011B04AA1A449C
:1030000002F8101C0133F5E70E46ECE708B5FFF7B0
:10301000CDFF08BD08B501F09FF8024A024B9A6047
:1030200008BD00BF0000000800ED00E008B501F099
:10303000B3F808BDF8B504460D4617461E462748A6
:10304000FFF79AFF21682648FFF796FF6168254839
:10305000FFF792FFA1682448FFF78EFFE16823483D
:10306000FFF78AFF21692248FFF786FF616921483F
:10307000FFF782FFA1692048FFF77EFFE1691F4843
:10308000FFF77AFF1E48FFF777FF29461D48FFF735
:1030900073FF1D4CE16A1D48FFF76EFF216B1C4852
:1030A000FFF76AFFE16B1B48FFF766FF15F0800F23
:1030B0000AD115F4004F0CD11748FFF75DFF0699B0
:1030C0001648FFF759FFF8BD39461548FFF754FF7A
:1030D000EFE731461348FFF74FFFEDE7886A000836
:1030E000986A0008A86A0008B86A0008C86A000858
:1030F000D86A0008E86A0008F86A0008086B000847
:10310000186B0008246B000800ED00E0346B000829
:10311000446B0008546B0008846B00088C6B00083B
:10312000646B0008746B000838B583691B888B4298
:1031300001D0002038BD044603684568013B302BB0
:1031400069D8DFE803F046211C1C5E30332D1919C5
:1031500068191919191936192468192768396868FE
:1031600068686868686868686868686868686868DF
:1031700068686868681919004FF0FF330360A36935
:103180000233A3610120D5E700230360F7E70023A2
:103190000360F4E700232B606B60AB60EB60EEE74D
:1031A00000230360EBE7AB680360E8E700230360FC
:1031B000E5E700230360E2E7BFF34F8F1749CA68D2
:1031C00002F4E062164B1343CB60BFF34F8F00BF96
:1031D000FDE71449286802F0C6FB40B96B6813B9D3
:1031E00001232360CBE7042B05D0082B06D04FF03A
:1031F000FF332360C3E702232360C0E70323236078
:10320000BDE72B68023B012B02D9AB680360B6E730
:1032100000230360B3E700208CE700BF00ED00E06F
:103220000400FA05846A000830B587B000240394CE
:103230000494C023019302230293059301A9154826
:10324000FDF7F2FD0125019501A91348FDF7ECFDFD
:103250000094124B1A6C42F002021A641B6C03F0C9
:1032600002030093009B0E4B1A6814601B683B22FC
:103270009A6246F260029A616022DA6141F21112AA
:103280001A625C639C63DC636422DA621D6007B0CF
:1032900030BD00BF00080240000402400038024078
:1032A00004000020024B1B6858639963DA6370477F
:1032B00004000020014BB3F9000070478402002095
:1032C00008B5FFF7F7FF80B20B4B1B88C01A80B21E
:1032D00003B2002B0CDB094880FB0320C218D8176F
:1032E000C0EB22204FF4B47202FB103000B208BDD4
:1032F00000F5B47003B2EEE786020020B7600BB6AB
:10330000034B1888C82894BF00200120704700BFD5
:10331000580300202DE9F04704460F469046994691
:10332000089EFDF7BDF8054623681A6812F4007F71
:1033300008D005EB060AFDF7B3F88245F4D2012068
:10334000BDE8F0871A6842F480721A6023685A69EF
:1033500012F0010F07D105EB060AFDF7A1F882452F
:10336000F4D20220ECE71F6123685A6912F0020FC1
:1033700006D1AF19FDF794F88742F5D20320DFE7B5
:103380009A69C3F8108023685A6912F0800F06D139
:10339000AF19FDF785F88742F5D20420D0E7C3F8CE
:1033A000109023685A6912F0800F06D1AF19FDF70B
:1033B00077F88742F5D20520C2E71A6842F4007216
:1033C0001A600020BCE72DE9F047044688461746FE
:1033D0009946089EFDF764F8054623681A6812F4BA
:1033E000007F08D005EB060AFDF75AF88245F4D2B3
:1033F0000120BDE8F0871A6842F480721A602368E1
:103400005A6912F0010F07D105EB060AFDF748F8DB
:103410008245F4D20220ECE7C3F8108023685A6991
:1034200012F0020F07D105EB060AFDF739F88245C5
:10343000F4D20320DDE79A6947F080071F61236813
:103440005A6912F0800F06D1AF19FDF729F88742AB
:10345000F5D20420CDE71A6842F480721A6022681F
:10346000536913F0010F06D1AF19FDF719F8874220
:10347000F5D20520BDE748F00103136123685A69BE
:1034800012F0020F06D1AF19FDF70AF88742F5D204
:103490000620AEE71A6842F400621A6072B623682A
:1034A0009A691A6822F480621A6062B623685B69BE
:1034B00013F0040F06D1AF19FCF7F2FF8742F5D2E3
:1034C000072096E772B62268136843F4007313600E
:1034D0002368D3F8108062B623681F6923681A68CE
:1034E00012F4007F07D105EB060AFCF7D9FF8245ED
:1034F000F4D208207DE71A6822F400621A6022687C
:10350000136843F4806313603B0223F07F4323F08E
:10351000FF0343EA0803A9F80030002069E7000030
:1035200070B586B04D4B1A68136823F00103136021
:10353000112302930423059301240394022304938B
:103540004FF400760196464D01A92846FDF76CFC24
:10355000224631462846FDF7EDFD4FF48076019670
:10356000A5F5006501A92846FDF75EFC2246314617
:103570002846FDF7DFFD4FF400713948FDF7C6FD21
:10358000012802D000BFF6E700BF4FF48071354834
:10359000FDF7BCFD0128F7D100224FF4007130483F
:1035A000FDF7C8FD4FF400712D48FDF7AFFD08B1E0
:1035B00000BFF7E700224FF480712A48FDF7BAFDFB
:1035C0004FF480712748FDF7A1FD08B100BFF7E770
:1035D00001224FF480712348FDF7ACFD4FF4807158
:1035E0002048FDF793FD012801D000BFF6E7012236
:1035F0004FF400711A48FDF79DFD4FF40071184813
:10360000FDF784FD012801D000BFF6E712230293E5
:10361000042305934FF48073019301A91148FDF72A
:1036200003FC4FF40073019301A90D48FDF7FCFB67
:103630000A480268136843F40043136000BF02683D
:10364000136823F40043136000BF0268136843F05B
:1036500001031360FDF78CFD06B070BDD40200209D
:10366000000802400000024070B588B000250295B5
:10367000324B1A6C42F400021A641B6C03F4000310
:103680000293029B039504950595069507952C4C8E
:103690002C4B23602C4B6360A560E5604FF48043A6
:1036A00023616561A561E56125622046FDF760FD46
:1036B0004FF4007303931223049301230593032310
:1036C00006930423079303A92048FDF7ADFB4FF4AD
:1036D0008073039303A91E48FDF7A6FBFFF720FFA5
:1036E0004FF47A7600962E23202230212046FFF7D1
:1036F00011FE00963023232219462046FFF70AFECA
:1037000000967C23202238212046FFF703FE0096F6
:103710004023212238212046FFF7FCFD00962B464E
:10372000222238212046FFF7F5FD00960C232322A4
:1037300038212046FFF7EEFD08B070BD003802408A
:10374000D4020020005C0040801A060000080240FD
:10375000000002400000000070B582B000F06AFD79
:10376000454B1B68C01A0A285BD900F063FD424B29
:1037700018600A230093414B2C2230214048FFF768
:1037800022FE04460123002B3CDC00F04DFD3D4BA6
:103790001860002C3ED1394B1888C72866D93A4C9E
:1037A00023886380163801F0B1FB31A3D3E90023ED
:1037B00001F040FD00F0CAFE02460B4600203349EE
:1037C00001F038FD01F0E4FE80B220802D4A13683C
:1037D00052689B1AB3FBF0F06288B3FBF2F3184413
:1037E0002B4A138803EB5000C3082A49A1FB03139B
:1037F0009B084FF4B47101FB13039BB21380264A5C
:10380000138033E05A1E1F4951F8220041F823006B
:103810001346B8E7FFF784FE174A13680A3B1360A4
:1038200024E000F001FD184C6388164D6968461AC3
:103830002488E21A02FB06F22D68691AB2FBF1F243
:103840001344401BB0FBF3F3B0FBF4F00344104A05
:10385000128802EB5303DA080E49A1FB0212920808
:103860004FF4B47101FB12320B4B1A8002B070BDE1
:103870000000000000D078408C0200205803002097
:10388000D40200205C03002028030020002881408F
:10389000D0020020176CC1168402002010B5FFF77B
:1038A0005BFFFFF72DFD00B910BD00F08DF840F271
:1038B000DB53984213D900F0B7FC1E4B1B68C01AAB
:1038C0001D4B9842F0D900F0AFFC1A4B18601B4B0F
:1038D0001A881B4B1A801B4B00221A80E4E7122324
:1038E000002B07DB591C184A32F8134022F811400C
:1038F000013BF5E7144B188000231A4604E01249F7
:1039000031F813100A440133132BF8DD0F4BA3FBDE
:1039100002131B090B4909889942CCD240F2E3718A
:103920008A42C8D9074A1380FFF7C4FC034B1880AA
:10393000C1E700BF90020020A0860100880200209D
:10394000860200208A02002030030020CDCCCCCC9F
:1039500070B58AB0002405940694079408940994DD
:103960000194029403940494144D4FF480336B60DB
:10397000AC602C610126AE612C62EC62104BAB6234
:10398000EC60EE612C636C612846FCF73BFE07237C
:1039900001930296039401A92846FCF7C3FFC023B4
:1039A000059303230693079405A90648FDF73CFAFF
:1039B0002846FCF71DFF0AB070BD00BF08000020BC
:1039C0000100000F00000240014BD86C80B270472C
:1039D0000020014084B000220192104B196B41F08D
:1039E00001011963196B01F0010101910199029222
:1039F000196B41F004011963196B01F00401029184
:103A0000029903921A6B42F002021A631B6B03F0D5
:103A100002030393039B04B0704700BF00380240C9
:103A200008B5024801F034FF08BD00BFD06B0008A4
:103A300000B595B03422002107A801F0C6FE00238E
:103A4000029303930493059306930093204A116C09
:103A500041F080511164126C02F080520092009A81
:103A600001931C490A6822F4404242F480420A60F1
:103A70000A6802F440420192019A0222079201214F
:103A80000A9110210B910D920E930F91F023109338
:103A9000119204231293139207A8FDF7AFFC88B983
:103AA0000F23029302230393002304934FF4A053A4
:103AB00005930693032102A8FDF7FEFE28B915B071
:103AC0005DF804FBFFF7ACFFEAE7FFF7A9FFF6E7B5
:103AD000003802400070004008B5FCF7BFFCFFF75B
:103AE000A7FFFFF777FF00F00BFCFEE708B50A46DB
:103AF0000146024801F0CCFE08BD00BFE06B0008A3
:103B000010B58CB0002209920A920B924148424BA8
:103B10000360009203F59C33596C41F00101596434
:103B2000596C01F001010091009901921A6B42F465
:103B300080021A631B6B03F480030193019B4FF413
:103B40008053089308A9FEF74DF800285ED10024A1
:103B5000059406940294314B1A6B42F001021A63E9
:103B60001B6B03F001030293029B4FF480630393EA
:103B7000022304930123079303A92948FDF754F96D
:103B800008212448FEF76AFB264B1C805C84264BE8
:103B90001A68136823F001031B041B0C1360234BEA
:103BA0001A68136823F001031360204B1B681A681E
:103BB00012F0010FF9D11C48026800215162D1684E
:103BC00041F40071D160916941F010019161D169B6
:103BD00041F06001D161116A41F4807141F001014D
:103BE00011623221D1622B215163916C41F00F019E
:103BF00091640F4A1A600D4B1B680A4ADA6002682A
:103C0000136843F0850313600CB010BDFFF708FF85
:103C10009DE700BFE0510020000001400038024055
:103C2000000002401C5200205800002054000020D8
:103C3000402C030C014B1880704700BF9C020020F1
:103C400010B4410089B20022134603E04B40090939
:103C50000132D2B2022AF9D903F00F0343EA40132A
:103C60001BB29BB2134A1468226812F0010FF9D1FB
:103C7000002206E0262001320F4921F812005B00E5
:103C80009BB20F2A04DC13F4004FF3D11320F2E7A8
:103C90000A4B1B683C33A360094B1B68094ADA6076
:103CA0009A6012236360236843F00103236010BC11
:103CB000704700BF540000201C5200205800002014
:103CC000500000207D0F7D0F08B500F0ADFA214BAC
:103CD0001B68C31A082B14D91E4B18601E4BB3F96E
:103CE00000301E4AB2F90020934202DD013B1A491E
:103CF0000B80194BB3F900309A4202DD0133164AAA
:103D00001380154BB3F9001000291ADD8BB2144A49
:103D10001268821A632A13D9114A10606BB140F2FB
:103D2000E73000FB03F3C3F34F23B3F57A7F00D3EF
:103D30000346002909DB30339BB21846FFF780FFAA
:103D400008BD8BB25B429BB2E1E703F2E9339BB261
:103D5000F1E700BF980200209E0200209C02002094
:103D60009402002010B586B01648174B03604FF43C
:103D70006143436000248460C46004610C23436198
:103D80008461C461FEF7F0FC224621462520FCF741
:103D9000D3FE2520FCF716FF039404944FF4007320
:103DA0000193022302930723059301A90748FDF716
:103DB0003BF88023019301A90548FDF735F806B0CB
:103DC00010BD00BF685200200010014000000240FA
:103DD0000004024010B5002414E0144B1B5D7E2B40
:103DE0000FD1134B02221A70124B00221A7008E0F6
:103DF000FCF756FB104B18600123104A13700C4A55
:103E000013700134082C0FDC094B1B78012BE4D014
:103E1000084A13780549085D0949C8540133DBB2E3
:103E20001370072BEDD9E3E710BD00BF5C520020F3
:103E30005C000020A0020020A402002065520020A7
:103E40005052002008B50248FCF7FCFE08BD00BF38
:103E5000A852002008B50248FEF79EFD08BD00BF2D
:103E60006852002008B5FCF71BFB064B1B68C01A04
:103E7000B0F57A7F02D21BB9002000E0002008BD17
:103E80000120FCE7A4020020034B1878AA2814BFE5
:103E900000200120704700BFA1020020014B1888BC
:103EA000704700BFAA020020014B1888704700BF6E
:103EB00066520020014BB3F9000070474C520020BD
:103EC000044B1B7813F0010F02D04FF0FF30704706
:103ED00001207047A8020020024B1878C0F3800030
:103EE000704700BFA80200204FF08043834201D9F1
:103EF0009B08FBE7002201E052089B0833B1D11870
:103F00008142F9D8401A02EB4302F5E7904200D90A
:103F10000132104670470000F8B509222C492D489F
:103F2000FEF7B4FC2C4B1B7803B9F8BD2A4B0022DA
:103F30001A702A4B19782A4A11705A789D7845EAE6
:103F40000225C5F500752DB2264A1580DA781C7950
:103F500044EA0224A4F5007424B2234A1480597957
:103F60009A7942EA012221490A80DA79204B1A70B3
:103F700004FB04F005FB0500FFF7B6FFC0F34E009D
:103F80001C4B1880284600F0C1FF06460F4620460D
:103F900000F0BCFF32463B4600F0D6FA0022164B3A
:103FA00001F01EF808A3D3E9002301F043F901F062
:103FB000C7FA00B2114B18800028B6DA00F5B470C9
:103FC0001880B2E7AFF30080182D4454FB2109405C
:103FD0005C520020685200206552002050520020A0
:103FE000A8020020AC020020AE020020AA0200209D
:103FF000A102002066520020008066404C52002042
:1040000082B0002100910B4B5A6C42F480425A64FA
:104010005A6C02F480420092009A01911A6C42F0AC
:1040200080521A641B6C03F080530193019B02B011
:10403000704700BF0038024000B589B000230393E9
:104040000493059306930793026803F1804303F5F5
:1040500090339A4202D009B05DF804FB002101912F
:1040600003F58C335A6C42F480725A645A6C02F431
:1040700080720192019A02911A6B42F001021A6356
:104080001B6B03F001030293029BC02303930323E2
:10409000049303A90148FCF7C7FEDCE700000240D7
:1040A000F0B589B000230393049305930693079317
:1040B000026803F1804303F588339A4201D009B0C6
:1040C000F0BD0022009203F59433596C41F01001C9
:1040D0005964596C01F01001009100990192196B1B
:1040E00041F001011963196B01F00101019101997E
:1040F00002921A6B42F002021A631B6B03F0020376
:104100000293029B4FF40073039302270497012646
:104110000596032506950724079403A90648FCF78E
:1041200083FE80230393049705960695079403A9BD
:104130000248FCF779FEC2E700000240000402409A
:104140007047FEE7FEE7FEE770477047704708B527
:10415000FCF79EF908BD70470C4B1A6842F001024B
:104160001A60002199601A6822F0847222F4803269
:104170001A60074A5A601A6822F480221A60D960CD
:10418000044B4FF000629A60704700BF0038024055
:104190001030002400ED00E01F4B9B6803F00C037F
:1041A000042B14D0082B16D01BB11C4B1C4A1A60D0
:1041B00002E01A4B1A4A1A60174B9B68C3F30313A9
:1041C000184AD15C154A1368CB4013607047134BF3
:1041D00000221A60F0E7104B5A685B6803F03F0357
:1041E00012F4800F0DD00C4B5B6800220A4B5B6809
:1041F000C3F3014301335B00B2FBF3F3074A1360DF
:10420000DAE7074AB2FBF3F2034B5B68C3F38813A8
:1042100003FB02F2EAE700BF003802406000002022
:104220000024F400106C0008014B1B68586A7047AA
:1042300064000020014B1B68586A7047680000202A
:10424000034B1A6800235362024A12685362704794
:10425000640000206800002010B582B000230093A5
:10426000194A116C41F008011164116C01F0080148
:104270000091009915490868036008683B2484622E
:1042800043620193106C40F004001064126C02F061
:1042900004020192019A0E4A1068036012684EF6F9
:1042A0005F2090625362536943F0010353610868D1
:1042B000436943F001034361012313600A681360FB
:1042C000FFF7BEFF02B010BD0038024064000020BE
:1042D0006800002008B5022809D003280AD0074B3F
:1042E0001870002211466420FEF7DCFF08BD034B66
:1042F0001870FBE7014B1870F8E700BFBC02002004
:1043000070B5FFF7A9FFFEF78FFFFFF721FBFFF75F
:1043100029FD00F001F9FFF7F3FBFFF7A5F9BDE078
:104320000120FFF7D7FFC9E0FFF7D6FD002840F0D6
:10433000CA80724B00221A70CAE0FFF7CDFD002838
:1043400000F0C6806D4B01221A706D4BB3F900303E
:104350005A2B03D05A226A4B1A80B9E04FF4877265
:10436000F9E7FFF77FFD002800F098800220FFF7B3
:10437000B1FF93E0FFF788FDE8B90020FFF75AFC92
:10438000FFF7A2FCFFF756FF5E4B1B68C01AB0F5A3
:104390007A7F40F283805C4B1B7883B1002232210C
:1043A0000846FEF77FFF584B00221A70FFF742FFC6
:1043B000544B186072E00320FFF78CFFDDE700220A
:1043C00064210846FEF76EFF4F4B01221A70EDE79D
:1043D000FFF75AFD002841D0FFF760FAFEF770FFA3
:1043E000474BB3F900301844484D85FB00352B1876
:1043F000C517C5EB23254FF4B47303FB15052DB288
:10440000FFF74CFD04B2FFF75BFD80B204EBD47400
:10441000641014FB00F424B2FFF746FD0A2831D9DA
:10442000FFF748FD461B002EB8BF7642B43E002E73
:10443000B8BF7642C6F1B40636B2592E12DC04EB90
:10444000D4746010FFF7F6FB092E0FDDB32D13DCDB
:10445000002264211046FEF725FF1DE00220FFF731
:1044600039FFB9E72046FFF7E5FBEDE764220021BD
:104470000846FEF717FF0FE0002211466420FEF702
:1044800011FF09E02046FFF7D5FBB32D2FDC0022FA
:1044900064211046FEF706FFFFF716FC00F04CF80B
:1044A000FFF7C2FE1A4B1860FFF736FDFFF7DAFC84
:1044B00020B9184B1B78012B7FF432AF0F4B1B78C0
:1044C000002B7FF431AF0D4B1B78002B3FF435AF41
:1044D000104B1B78022B3FF44DAF032B3FF478AF0A
:1044E000012B3FF43EAF0120FFF7F4FED6E7002298
:1044F00011466420FEF7D6FECEE700BFBD020020C5
:104500006C000020B4020020B0020020B7600BB69F
:10451000B8020020BC02002008B50548054B036026
:10452000032343604FF4FA738360FCF71DFF08BD5B
:10453000085300200030004008B50248FCF758FF3F
:1045400008BD00BF0853002000F062B82DE9F04F0D
:104550008BB004460D4600F035F92A4B93F900A0C4
:10456000BAF1FF3F06460F4612D022462B462046A0
:10457000294600F0CFFF834650B94FF000084FF0B6
:10458000000942464B462046294600F09BFF20B9D1
:10459000304639460BB0BDE8F08F01221A4BCDF8FA
:1045A00020B00092CDE90445CDE902450193BAF16E
:1045B000000F17D042464B464046494600F03AFEAF
:1045C000BAF1020FCDE906010ED101F001F8212365
:1045D0000360089B83B9DDE90667304639460BB0B6
:1045E000BDE8F08FCDE90689684600F03BFB002866
:1045F000EBD0089B002BEED000F0EAFF089B036095
:10460000E9E700BF6E000020206C000800000000F9
:104610002DE9F84F5442144323F00048684E48EA0D
:10462000D474B44284460F461FD84442044321F058
:10463000004A4AEAD474B4428B4616D803F1404487
:1046400004F5801414439E4647D09C1704F00204DE
:1046500044EAD1745AEA00010FD1022C41D0032C54
:1046600038D145A1D1E9000105E01046194662465E
:104670003B4600F0FFFABDE8F88F58EA020122D06D
:10468000B04536D0B2451ED0AAEB08084FEA2858EC
:10469000B8F13C0F29DC002B3BDA18F13C0F38DA7B
:1046A00000200021012C4AD0022C3BD0002CE2D06B
:1046B00033A3D3E9002300F0DBFA33A3D3E90023CB
:1046C00000F0D6FAD7E7BBF1000F1EDB30A1D1E92D
:1046D0000001D0E73946BDE8F88FBDE8F84F00F09B
:1046E00033B929A1D1E90001C5E729A1D1E9000128
:1046F000D8E7C24527D0022CF3D0032CB1D0012C2F
:104700004FF0000029D00021B5E723A1D1E9000135
:10471000B1E76046394600F08DFD00F09FFA00F0E9
:1047200013F9BFE716A3D3E9002300F0A1FA02466C
:104730000B4615A1D1E9000100F09AFA9BE701F1BF
:104740000043194697E7022C12D0032C0CD0012C01
:1047500006D013A1D1E900018DE74FF000418AE7AF
:1047600011A1D1E9000186E711A1D1E9000182E799
:1047700011A1D1E900017EE7182D4454FB2109C0A5
:10478000075C143326A6A13C182D4454FB21094094
:10479000182D4454FB21F93F182D4454FB21F9BF37
:1047A000182D4454FB21E93F182D4454FB21E9BF47
:1047B000D221337F7CD902C0D221337F7CD9024001
:1047C0000000F07F5F4A8A432DE9F0410D4606461E
:1047D00000F09A8000290B46044653DD5FEA215C15
:1047E00000F0A780C3F31303ACF2FF3CE20F43F4E5
:1047F00080131CF0010F02EB43034FEA440203D085
:10480000D20F02EB4303A20000274FEA6C0C38469C
:1048100016214FF4001405199D4202DC5B1B281978
:1048200027445B00013903EBD2734FEA54044FEA8B
:104830004202F0D10D468E4620264FF0004109E09D
:1048400042D0D40F013E4FEA510104EB43034FEA3B
:10485000420242D0834201EB0E04F1DD002C04EB56
:10486000010E09DB80461B1A944288BF03F1FF3317
:10487000121B0D444046E4E7BEF1000FF2DB00F1ED
:104880000108F0E721F00042024334D0002947D16B
:10489000E00A153B640502460028F9D0C5024BD456
:1048A000002100E029465200D00201F10105F9D5AE
:1048B00010462246AC40C5F1200522FA05F5A3EBCF
:1048C000010C45EA00038DE79442BAD8002C04EBB2
:1048D000010ED1DB98460023CAE713430ED16E08C0
:1048E0007B1003F17F5303F50013FA0748BF46F02E
:1048F000004603EB0C513046BDE8F081691C16BF41
:10490000691C01374E08EBE702460B4600F068FBD6
:1049100032462B4600F0AEF906463046BDE8F0813F
:10492000024600F0A5F902460B4600F083FC06465D
:10493000E1E70A466346B3E7224620254FF0FF3100
:10494000BBE700BF0000F07F2DE9F84FB64B21F028
:1049500000469E420D468A46044616DDB34B9E42F3
:104960000BDC08D0B249B34BB348BAF1000FD8BF43
:104970001946BDE8F88F0028F4D0224620462B4681
:10498000294600F077F9BDE8F88FAC4B9E4200F362
:10499000B480A3F1DE739E4240F39A804FF0FF3B58
:1049A00022462B462046294600F01AFB02460B46BB
:1049B0008046894600F014FB83A3D3E90023064612
:1049C0000F4600F00DFB82A3D3E9002300F052F95B
:1049D00032463B4600F004FB7FA3D3E9002300F0FE
:1049E00049F932463B4600F0FBFA7DA3D3E90023A8
:1049F00000F040F932463B4600F0F2FA7AA3D3E9E0
:104A0000002300F037F932463B4600F0E9FA78A37C
:104A1000D3E9002300F02EF942464B4600F0E0FABD
:104A200075A3D3E90023804689463046394600F015
:104A3000D7FA73A3D3E9002300F01AF932463B46B4
:104A400000F0CEFA70A3D3E9002300F011F932464A
:104A50003B4600F0C5FA6EA3D3E9002300F008F945
:104A600032463B4600F0BCFA6BA3D3E9002300F0CA
:104A7000FFF832463B4600F0B3FA02460B4640468A
:104A8000494600F0F7F822462B4600F0A9FABBF1A0
:104A9000FF3F02460B462AD0694B6A4E4FEACB0BCA
:104AA0005B44D3E9002300F0E3F822462B4600F0F4
:104AB000DFF8B34402460B46DBE9000100F0D8F80A
:104AC000BAF1000FBFF655AF01F10041BDE8F88F14
:104AD00053A3D3E9002300F0CDF800225A4B00F095
:104AE0000FFD00283FF45AAF2046294641E72046F3
:104AF000294600F0BDF8BDE8F88F00F0AFF8534B41
:104B00009E4204460D461FDCA3F550239E4244DC22
:104B100002460B4600F0AEF800224B4B00F0A8F81E
:104B2000002206460F464FF080432046294600F0FB
:104B3000A1F802460B463046394600F07BFB4FF0A9
:104B4000000B04460D462BE7414B9E421ADC002227
:104B5000404B00F08DF8002206460F463D4B2046A4
:104B6000294600F03DFA0022374B00F083F8024658
:104B70000B463046394600F05DFB4FF0020B044611
:104B80000D460DE702460B460020334900F052FB6C
:104B90004FF0030B04460D4602E700222A4B00F0BB
:104BA00067F8002206460F46274B2046294600F0AC
:104BB00061F802460B463046394600F03BFB4FF0A9
:104BC000010B04460D46EBE611DA22E33AAD903FC5
:104BD000EB0D76244B7BA93F513DD0A0660DB13F34
:104BE0006E204CC5CD45B73FFF8300922449C23F9C
:104BF0000D5555555555D53F2F6C6A2C44B4A2BF61
:104C00009AFDDE522DDEAD3F6D9A74AFF2B0B33F28
:104C1000711623FEC671BC3FC4EB98999999C93FA0
:104C20009C7500883CE4377EFFFF0F440000F07F56
:104C3000FB21F93FFB21F9BF182D4454FFFFDB3F57
:104C4000486C0008286C00080000F03FFFFFF23FAE
:104C5000FF7F03400000F83F0000F0BF21F0004359
:104C6000194670470020704781F0004102E000BF04
:104C700083F0004330B54FEA41044FEA430594EA1C
:104C8000050F08BF90EA020F1FBF54EA000C55EA57
:104C9000020C7FEA645C7FEA655C00F0E2804FEA28
:104CA0005454D4EB5555B8BF6D420CDD2C4480EA0A
:104CB000020281EA030382EA000083EA010180EA3A
:104CC000020281EA0303362D88BF30BD11F0004F88
:104CD0004FEA01314FF4801C4CEA113102D04042BE
:104CE00061EB410113F0004F4FEA03334CEA1333F9
:104CF00002D0524263EB430394EA050F00F0A78011
:104D0000A4F10104D5F1200E0DDB02FA0EFC22FA0B
:104D100005F2801841F1000103FA0EF2801843FAFF
:104D200005F359410EE0A5F120050EF1200E012AF0
:104D300003FA0EFC28BF4CF0020C43FA05F3C0182E
:104D400051EBE37101F0004507D54FF0000EDCF1A7
:104D5000000C7EEB00006EEB0101B1F5801F1BD350
:104D6000B1F5001F0CD349085FEA30004FEA3C0C54
:104D700004F101044FEA445212F5800F80F09A804A
:104D8000BCF1004F08BF5FEA500C50F1000041EB4E
:104D9000045141EA050130BD5FEA4C0C404141EB52
:104DA000010111F4801FA4F10104E9D191F0000F79
:104DB00004BF01460020B1FA81F308BF2033A3F1FC
:104DC0000B03B3F120020CDA0C3208DD02F1140CF3
:104DD000C2F10C0201FA0CF021FA02F10CE002F12E
:104DE0001402D8BFC2F1200C01FA02F120FA0CFC27
:104DF000DCBF41EA0C019040E41AA2BF01EB045170
:104E0000294330BD6FEA04041F3C1CDA0C340EDC6D
:104E100004F11404C4F1200220FA04F001FA02F3B0
:104E200040EA030021FA04F345EA030130BDC4F16E
:104E30000C04C4F1200220FA02F001FA04F340EA63
:104E40000300294630BD21FA04F0294630BD94F014
:104E5000000F83F4801306BF81F480110134013DFB
:104E60004EE77FEA645C18BF7FEA655C29D094EA6C
:104E7000050F08BF90EA020F05D054EA000C04BFEA
:104E80001946104630BD91EA030F1EBF00210020D5
:104E900030BD5FEA545C05D14000494128BF41F074
:104EA000004130BD14F580043CBF01F5801130BDD8
:104EB00001F0004545F0FE4141F470014FF0000063
:104EC00030BD7FEA645C1ABF194610467FEA655C14
:104ED0001CBF0B46024650EA013406BF52EA0335B6
:104EE00091EA030F41F4002130BD00BF90F0000FA4
:104EF00004BF0021704730B54FF4806404F13204E0
:104F00004FF000054FF0000150E700BF90F0000F98
:104F100004BF0021704730B54FF4806404F13204BF
:104F200010F0004548BF40424FF000013EE700BF8F
:104F300042004FEAE2014FEA31014FEA02701FBF1F
:104F400012F07F4393F07F4F81F06051704732F051
:104F50007F4208BF704793F07F4F04BF41F40021A8
:104F6000704730B54FF4607401F0004521F0004106
:104F70001CE700BF50EA010208BF704730B54FF090
:104F800000050AE050EA010208BF704730B511F091
:104F9000004502D5404261EB41014FF4806404F1C9
:104FA00032045FEA915C3FF4D8AE4FF003025FEA4F
:104FB000DC0C18BF03325FEADC0C18BF033202EBD3
:104FC000DC02C2F1200300FA03FC20FA02F001FA2D
:104FD00003FE40EA0E0021FA02F11444BDE600BFD0
:104FE00070B54FF0FF0C4CF4E06C1CEA11541DBF7F
:104FF0001CEA135594EA0C0F95EA0C0F00F0DEF84A
:105000002C4481EA030621EA4C5123EA4C5350EA2E
:10501000013518BF52EA033541F4801143F480137F
:1050200038D0A0FB02CE4FF00005E1FB02E506F010
:105030000042E0FB03E54FF00006E1FB03569CF065
:10504000000F18BF4EF0010EA4F1FF04B6F5007F6B
:1050500064F5407404D25FEA4E0E6D4146EB0606DD
:1050600042EAC62141EA55514FEAC52040EA5E5066
:105070004FEACE2EB4F1FD0C88BFBCF5E06F1ED810
:10508000BEF1004F08BF5FEA500E50F1000041EB47
:10509000045170BD06F0004646EA010140EA0200F4
:1050A00081EA0301B4EB5C04C2BFD4EB0C0541EA16
:1050B000045170BD41F480114FF0000E013C00F32B
:1050C000AB8014F1360FDEBF002001F0004170BD4F
:1050D000C4F10004203C35DA0C341BDC04F1140468
:1050E000C4F1200500FA05F320FA04F001FA05F2F4
:1050F00040EA020001F0004221F0004110EBD370C1
:1051000021FA04F642EB06015EEA430E08BF20EAEC
:10511000D37070BDC4F10C04C4F1200500FA04F38F
:1051200020FA05F001FA04F240EA020001F0004121
:1051300010EBD37041F100015EEA430E08BF20EA94
:10514000D37070BDC4F1200500FA05F24EEA020EDC
:1051500020FA04F301FA05F243EA020321FA04F00B
:1051600001F0004121FA04F220EA020000EBD370C2
:105170005EEA430E08BF20EAD37070BD94F0000FC2
:105180000FD101F00046400041EB010111F4801FF6
:1051900008BF013CF7D041EA060195F0000F18BFA7
:1051A000704703F00046520043EB030313F4801FE3
:1051B00008BF013DF7D043EA0603704794EA0C0F9D
:1051C0000CEA135518BF95EA0C0F0CD050EA4106B3
:1051D00018BF52EA4306D1D181EA030101F0004130
:1051E0004FF0000070BD50EA410606BF1046194658
:1051F00052EA430619D094EA0C0F02D150EA013664
:1052000013D195EA0C0F05D152EA03361CBF1046A4
:1052100019460AD181EA030101F0004141F0FE4143
:1052200041F470014FF0000070BD41F0FE4141F4C7
:10523000780170BD70B54FF0FF0C4CF4E06C1CEAC7
:1052400011541DBF1CEA135594EA0C0F95EA0C0F7C
:1052500000F0A7F8A4EB050481EA030E52EA033537
:105260004FEA013100F088804FEA03334FF0805558
:1052700045EA131343EA12634FEA022245EA111585
:1052800045EA10654FEA00260EF000419D4208BF36
:10529000964244F1FD0404F5407402D25B084FEAE3
:1052A0003202B61A65EB03055B084FEA32024FF48F
:1052B00080104FF4002CB6EB020E75EB030E22BFEC
:1052C000B61A754640EA0C005B084FEA3202B6EBAC
:1052D000020E75EB030E22BFB61A754640EA5C005B
:1052E0005B084FEA3202B6EB020E75EB030E22BFEB
:1052F000B61A754640EA9C005B084FEA3202B6EBEC
:10530000020E75EB030E22BFB61A754640EADC00AA
:1053100055EA060E18D04FEA051545EA16754FEA0C
:1053200006164FEAC30343EA52734FEAC2025FEA2A
:105330001C1CC0D111F4801F0BD141EA00014FF0B9
:1053400000004FF0004CB6E711F4801F04BF01438A
:105350000020B4F1FD0C88BFBCF5E06F3FF6AFAEA6
:10536000B5EB030C04BFB6EB020C5FEA500C50F136
:10537000000041EB045170BD0EF0004E4EEA1131B9
:1053800014EB5C04C2BFD4EB0C0541EA045170BDC0
:1053900041F480114FF0000E013C90E645EA060E04
:1053A0008DE60CEA135594EA0C0F08BF95EA0C0F32
:1053B0003FF43BAF94EA0C0F0AD150EA01347FF47A
:1053C00034AF95EA0C0F7FF425AF104619462CE751
:1053D00095EA0C0F06D152EA03353FF4FDAE1046B4
:1053E000194622E750EA410618BF52EA43067FF405
:1053F000C5AE50EA41047FF40DAF52EA43057FF495
:10540000EBAE12E74FF0FF3C06E000BF4FF0010C9F
:1054100002E000BF4FF0010C4DF804CD4FEA410C03
:105420007FEA6C5C4FEA430C18BF7FEA6C5C1BD0D0
:1054300001B050EA410C0CBF52EA430C91EA030F51
:1054400002BF90EA020F0020704710F1000F91EAAE
:10545000030F58BF994208BF90422CBFD8176FEA7C
:10546000E37040F0010070474FEA410C7FEA6C5C4A
:1054700002D150EA013C07D14FEA430C7FEA6C5C51
:10548000D6D152EA033CD3D05DF8040B704700BF7D
:105490008446104662468C461946634600E000BFCB
:1054A00001B5FFF7B7FF002848BF10F1000F01BD9D
:1054B0004DF808EDFFF7F4FF0CBF012000205DF868
:1054C00008FB00BF4DF808EDFFF7EAFF34BF0120ED
:1054D00000205DF808FB00BF4DF808EDFFF7E0FF86
:1054E00094BF012000205DF808FB00BF4DF808EDD7
:1054F000FFF7CEFF94BF012000205DF808FB00BF3E
:105500004DF808EDFFF7C4FF34BF012000205DF81F
:1055100008FB00BF4FEA410C7FEA6C5C02D150EA05
:10552000013C0AD14FEA430C7FEA6C5C02D152EA9B
:10553000033C02D14FF0000070474FF0010070476C
:105540004FEA410212F5001215D211D56FF47873AB
:10555000B3EB625212D94FEAC12343F0004343EA4E
:10556000505311F0004F23FA02F018BF4042704729
:105570004FF00000704750EA013005D111F00040B3
:1055800008BF6FF0004070474FF00000704700BF49
:105590004A0011D212F5001211D20DD56FF47873B2
:1055A000B3EB62520ED44FEAC12343F0004343EA07
:1055B000505323FA02F070474FF00000704750EA52
:1055C000013002D14FF0FF3070474FF000007047BC
:1055D000014B1868704700BF70000020002310B511
:1055E0000446C0E90033836081814366C281C0E91B
:1055F00004338361194608225C3000F0E6F8054B5D
:105600006362054BA362054BE362054B246223638F
:1056100010BD00BFE1580008035900083B590008BD
:105620005F590008014900F0AFB800BF415B0008B6
:1056300070B54A1E682555430E4605F1740100F009
:10564000CDF8044640B10021C0E900160C30A0603E
:1056500005F1680200F0B9F8204670BD014800F07D
:10566000B2B800BF1C530020014800F0ADB800BF25
:105670001C530020014800F0A6B800BF17530020BB
:10568000014800F0A1B800BF1753002010B5044630
:10569000FFF7F0FFA3691BB1BDE81040FFF7F0BFB3
:1056A000C4E912332365134B134A1B68A262A34259
:1056B00004BF0123A361204600F020F8606020466B
:1056C00000F01CF8A060204600F018F80022E0600E
:1056D00004216068FFF782FF01220921A068FFF71B
:1056E0007DFF02221221E068FFF778FF0123A3610A
:1056F000D2E700BFCC6D000825560008F8B5074674
:10570000FFF7ACFF1E4B1E68B36913B93046FFF7B5
:10571000BDFF4836D6E90134013B03D533680BB3EE
:105720003668F7E7B4F90C50D5B9164BE36004F1CD
:105730005800656600F046F8FFF796FF2560C4E95B
:105740000155C4E90455A5610822294604F15C000D
:1057500000F03BF8C4E90D55C4E912552046F8BDE8
:105760006834D9E704213846FFF762FF0446306009
:105770000028D5D1FFF778FF0C233B60EEE700BF90
:10578000CC6D00080100FFFF2DE9F84380468946F3
:1057900000F14804002614B93046BDE8F883D4E986
:1057A0000175013F01D52468F5E7AB89012B07D9C5
:1057B000B5F90E30013303D029464046C8470643A9
:1057C0006835EEE7704770477047024403469342DE
:1057D00000D1704703F8011BF9E70000F8B5CD1CB4
:1057E00025F0030508350C2D38BF0C25002D064685
:1057F00001DBA94203D90C2333600020F8BD00F07F
:10580000EDF921490A6814469CB9204F3B6823B939
:105810002146304600F054F838602946304600F002
:105820004FF8431C23D10C233360304600F0DCF9E1
:10583000E3E723685B1B17D40B2B03D923601C44BD
:10584000256004E06368A2420CBF0B6053603046E1
:1058500000F0CAF904F10B00231D20F00700C21A62
:10586000CCD01B1AA350C9E722466468CCE7C41CFD
:1058700024F00304A042E3D0211A304600F020F8BF
:105880000130DDD1CFE700BFC0020020C4020020FC
:105890000FB40A4B13B51C6824B1A36913B9204691
:1058A000FFF7F4FE05AB049AA1680193204600F0CF
:1058B0006BFB02B0BDE8104004B0704770000020E0
:1058C00038B5064C0023054608462360FDF700F96D
:1058D000431C02D1236803B12B6038BDCC020020E9
:1058E00010B50C46B1F90E1000F000FE0028ABBF59
:1058F000636DA3891B1823F48053ACBF6365A38138
:1059000010BD2DE9F0411F468B89DB0505460C468D
:10591000164605D502230022B1F90E1000F04CF90D
:10592000A389B4F90E1023F48053A38132463B4679
:105930002846BDE8F04100F05BB810B50C46B1F95F
:105940000E1000F039F9431CA38915BF606523F4DC
:10595000805343F48053A38118BFA38110BDB1F9D4
:105960000E1000F057B810F8012B11F8013B012A76
:1059700028BF9A42F7D0D01A704730B5141E05469A
:105980009BB0184605DA8B232B604FF0FF301BB01D
:1059900030BD4FF40273ADF80C3014BF04F1FF3387
:1059A0002346029305934FF6FF7300910491ADF8DF
:1059B0000E3002461E9B6946284600F0C5F9431C7E
:1059C000BCBF8B232B60002CE1D0009B00221A70FF
:1059D000DDE7000007B5009313460A460146034879
:1059E0000068FFF7CAFF03B05DF804FB70000020F9
:1059F00038B5074C054608461146002222601A4673
:105A0000FDF718FA431C02D1236803B12B6038BD9F
:105A1000CC02002038B5064C00230546084623601A
:105A2000FDF73AFA431C02D1236803B12B6038BD5D
:105A3000CC0200208A892DE9F041054610070C466A
:105A400058D44B68002B05DC0B6C002B02DC0020CB
:105A5000BDE8F081E66A002EF9D0002312F48052EE
:105A60002F682B6032D0606DA3895A0705D5636813
:105A7000C01A636B0BB1236CC01A00230246E66A9E
:105A8000216A2846B047431CA38906D129681D29ED
:105A900049D82A4ACA40D60745D500226260D904AF
:105AA0002269226004D5421C01D12B6803B96065CC
:105AB000616B2F600029CAD004F14403994202D0DF
:105AC000284600F097F800206063C1E7216A0123AF
